:020000020000FC
:100000004FEF4DBF48E04EBFA0E0B1E0CC2447E643
:100010004093C40048E04093C10046E04093C200D2
:100020000E9414020E9416000C941400C070D1E0CB
:100030004070A42EC880C6FC0E945A00C7FC0E94D3
:100040005A000E9439010E944201A0FEF1CFC07007
:10005000D1E04070A42EC880C4FC0E945A00C5FCA8
:100060000E945A000E9439014070A42E0E94420151
:10007000A0FEEFCF44275527AA24C0E0D1E00E947C
:100080004201A0FC0C9414004991442371F04F30BC
:10009000B1F35160042F40E3040F0E94B3010E94AA
:1000A0004201A0FC08950C943F0050FD0C944A00BE
:1000B0000C945300CF93DF93EC2FFD2F47E250E1D8
:1000C0005F934F9343E058EE5F934F9340E054E6C5
:1000D0005F934F9340E05AE05F934F9340E051E0CD
:1000E0005F934F934070507060700E943D01088193
:1000F0000F30D9F3802F8051A0F40E945601A0FC4C
:1001000010C08070182F3F912F9163950E946A0153
:1001100095018A010E94660113F0A501E6CF0C94B7
:100120002701653021F07F917F916395FACFCE2F23
:10013000DF2F4F935F9370706070A62EB62E0E94D3
:1001400039014881842F8051A8F40E9442014F3028
:10015000B1F3A0FC0FC08070172F062F33272AE0C1
:100160000E946A01950155278A010E946601BBF22F
:10017000B501E5CF5F914F9180818A019B0187FD99
:100180000E94860186FD0E946A0185FD0E94A001F1
:1001900084FD0E946601EC2EFD2EA501CE2FDF2FDF
:1001A000AA2461E06F9360E06F936AE06F9360E070
:1001B0006F9364E66F9360E06F9368EE6F9363E014
:1001C0006F9360E16F9367E26F9365E0D62E6A915B
:1001D0000E945601A0FC02C06031C8F369919927C2
:1001E000DA947F916F919B018A010E9486018A2D8A
:1001F000AA2091F091609B0185010E946A018A0109
:1002000095010E94A001A501850189930E94A40186
:10021000DD2051F00C94F00090FF0C94F0008993D5
:10022000DD2011F00C94F000FF2DEE2DAA245FE0EC
:1002300048810E944C01A0FC07C00E944201A0FC22
:1002400003C059930C941701DF91CF91089505E4F1
:100250000E94B30102E50E94B30102E50E94B301CE
:100260000FE40E94B30102E50E94B3010E94BC01A9
:100270000895C39583F4D3950895CA95CF3F59F453
:10028000DA950895AA24BD1731F4AC1721F44F93E1
:100290004160A42E4F910895AA24FD17E1F7EC17B1
:1002A000D1F74F934160A42E4F9108954F93AA2404
:1002B000D03031F4CF3F21F44160A42E4F91089506
:1002C0004E7FA42E4F9108950C942701200F311FCB
:1002D000590108954F935F936F937F934427139F22
:1002E000502D612D029FA02CB12C129FB00C511DDE
:1002F000641F039FB00C511D641F77277395571718
:100300001CF77F916F915F914F9108954F935F9389
:100310006F934427551B61E1001F111F6A9529F453
:1003200058016F915F914F910895441F551F421BD3
:10033000530B20F4420F531F8894EECF0894ECCF58
:10034000021B130B580108954F93AA24442700233E
:1003500031F4112321F44160A42E4F9108954E7F72
:10036000A42E4F9108958091C00085FFFCCF00938B
:10037000C600000000000895CC24B1E0A0E0D1E068
:10038000C0E0442755276627772788279927DD244B
:10039000EE24FF2400241124222433244424552451
:1003A0002224332488249924AA24BB24002711273B
:1003B00022273327089546E04093000142E040930E
:1003C000010149E04093020140E24093030142E011
:1003D0004093040140E04093050140E24093060150
:1003E00044E040930701B1E0A8E0089542E0409363
:1003F000000140E04093010140E14093020141E0EF
:100400004093030140E04093040140E04093050124
:1004100040E04093060140E84093070148E04093E4
:100420000801B1E0A9E0089541E04093000142E0F5
:100430004093010140E04093020140E040930301FA
:1004400040E44093040141E04093050140E04093C3
:10045000060140E24093070148E04093080146E06E
:100460004093090140E040930A0140E840930B01AA
:0C04700048E040930C01B1E0ADE00895BD
:00000001FF
