:020000020000FC
:100000004FEF4DBF48E04EBFA0E0B1E0CC2447E643
:100010004093C40048E04093C10046E04093C200D2
:100020000E9482020E941C000AE00E94BB010DE0B7
:100030000E94BB010C941A00C070D1E04070A42E45
:10004000C880C6FC0E945F00C7FC0E945F000E943F
:1000500041010E944A01A0FEF1CFC070D1E0407082
:10006000A42EC880C4FC0E945F00C5FC0E945F00F3
:100070000E9441014070A42E0E944A01A0FEEFCFD1
:1000800044275527AA24C0E0D1E00E944A01A0FCE1
:1000900008954991442371F04F30B9F35160042F12
:1000A00040E3040F0E94BB010E944A01A0FC089596
:1000B0000C94450050FD0C944F000C945800CF93C5
:1000C000DF93EC2FFD2F47E250E15F934F9343E026
:1000D00058EE5F934F9340E054E65F934F9340E0B8
:1000E0005AE05F934F9340E051E05F934F9340702D
:1000F000507060700E94450108810F30D9F3802F45
:100100008051A0F40E945E01A0FC10C08070182FE6
:100110003F912F9163950E94720195018A010E947F
:100120006E0113F0A501E6CF0C942D01653021F08E
:100130007F917F916395FACFCE2FDF2F4F935F93FF
:1001400070706070A62EB62E0E9441014881842FE7
:100150008051A8F40E944A014F30B1F3A0FC0FC0B7
:100160008070172F062F33272AE00E947201950115
:1001700055278A010E946E01BBF2B501E5CF5F9160
:100180004F9180818A019B0187FD0E948E0186FD2F
:100190000E94720185FD0E94A80184FD0E946E01EB
:1001A0001BF2EC2EFD2EA501CE2FDF2FAA2461E03D
:1001B0006F9360E06F936AE06F9360E06F9364E623
:1001C0006F9360E06F9368EE6F9363E06F9360E10D
:1001D0006F9367E26F9365E0D62E6A910E945E018D
:1001E000A0FC02C06031C8F369919927DA947F912D
:1001F0006F919B018A010E948E018A2DAA2091F0A5
:1002000091609B0185010E9472018A0195010E9403
:10021000A801A501850189930E94AC01DD2051F060
:100220000C94F60090FF0C94F6008993DD2011F0F9
:100230000C94F600FF2DEE2DAA245FE048810E9469
:100240005401A0FC07C00E944A01A0FC03C05993BE
:100250000C941D01DF91CF91089505E40E94BB012C
:1002600002E50E94BB0102E50E94BB010FE40E946F
:10027000BB0102E50E94BB010E94C4010C943E0137
:100280000895C39583F4D3950895CA95CF3F59F443
:10029000DA950895AA24BD1731F4AC1721F44F93D1
:1002A0004160A42E4F910895AA24FD17E1F7EC17A1
:1002B000D1F74F934160A42E4F9108954F93AA24F4
:1002C000D03031F4CF3F21F44160A42E4F910895F6
:1002D0004E7FA42E4F9108950C942D01200F311FB5
:1002E000590108954F935F936F937F934427139F12
:1002F000502D612D029FA02CB12C129FB00C511DCE
:10030000641F039FB00C511D641F77277395571707
:100310001CF77F916F915F914F9108954F935F9379
:100320006F934427551B61E1001F111F6A9529F443
:1003300058016F915F914F910895441F551F421BC3
:10034000530B20F4420F531F8894EECF0894ECCF48
:10035000021B130B580108954F93AA24442700232E
:1003600031F4112321F44160A42E4F9108954E7F62
:10037000A42E4F9108958091C00085FFFCCF00937B
:10038000C600000000000895CC24B1E0A0E0D1E058
:10039000C0E0442755276627772788279927DD243B
:1003A000EE24FF2400241124222433244424552441
:1003B0002224332488249924AA24BB24002711272B
:1003C00022273327089546E04093000142E04093FE
:1003D000010149E04093020140E24093030142E001
:1003E0004093040140E04093050140E24093060140
:1003F00044E040930701B1E0A8E0089542E0409353
:10040000000140E04093010140E14093020141E0DE
:100410004093030140E04093040140E04093050114
:1004200040E04093060140E84093070148E04093D4
:100430000801B1E0A9E0089541E04093000142E0E5
:100440004093010140E04093020140E040930301EA
:1004500040E44093040141E04093050140E04093B3
:10046000060140E24093070148E04093080146E05E
:100470004093090140E040930A0140E840930B019A
:1004800048E040930C01B1E0ADE0089549E04093AD
:10049000000149E04093010149E04093020149E035
:1004A0004093030149E04093040140E24093050179
:1004B00049E04093060149E04093070140E0409342
:1004C000080140E04093090140E040930A01B1E097
:1004D000ABE0089541E04093000140E0409301010A
:1004E00040E04093020140E04093030140E040932C
:1004F000040140E44093050149E040930601B1E066
:10050000A7E0089506E00E94A10202E00E94A10275
:1005100009E00E94A10200E20E94B60202E00E94ED
:10052000A10200E00E94A10200E20E94B60204E0E3
:100530000E94A1020AE00E94BB010DE00E94BB01E3
:100540000895B13051F4A03041F4CC2031F4C02EE4
:1005500000E30C0D0E94BB0108954F93CD92C02E75
:1005600040E3040F0E94BB014F910895B13019F48C
:10057000A03009F4089590E1C91624F4CD92C02E5C
:100580000C94C802C02E08E00E94BB010C94C80263
:1005900090E1C91649F090E2C91651F090E4C916ED
:1005A00059F090E8C91661F00BE20E94BB01089572
:1005B0000DE20E94BB0108950FE20E94BB01089565
:0805C0000AE20E94BB0108954C
:00000001FF
